:100000000C944A020C9472020C9472020C94791EA5
:100010000C94A31E0C94CD1E0C9472020C947202CC
:100020000C9472020C9472020C9472020C94511D86
:100030000C9472020C9472020C9472020C94720270
:100040000C940E5E0C9472020C94C1580C940859D6
:100050000C9472020C9472020C9472020C94720250
:100060000C94D91F0C94720264656661756C7400FF
:1000700078706C00617264756978706C0064756D7D
:100080006D7900636D6E64006E6577636F6E6600F8
:100090007265636F6E660078706C006D61632D61D0
:1000A0006464726573730069702D61646472657352
:1000B00073006468637000747275650031006F6E60
:1000C000007965730069702D6D61736B006F6666F2
:1000D000006F7074696F6E006D656D00636F73748F
:1000E000006368616E6E656C006C69676874696E48
:1000F00067006F6E006F6666007374617465006CF4
:100100006576656C00747275650030006C6173749F
:100110000064656661756C74006C6173740064657D
:100120006661756C74006C69676874696E670064F9
:10013000657669636500636F6D6D616E640064650B
:1001400076696E666F007265706F72742D6F6E2DBA
:100150006D616E75616C0074727565006368616EC7
:100160006E656C5F636F756E74007072696D61723D
:10017000792D6368616E6E656C007363656E652DC5
:10018000636F756E7400636F6E6669670063726596
:10019000617465006368616E6E656C006C696768A8
:1001A00074696E67006761746577617900636F6D6C
:1001B0006D616E640067617465696E666F00707270
:1001C0006F746F636F6C004152424E4F006E6574E6
:1001D0002D636F756E74007072656665727265640A
:1001E0002D6E65740074727565007363656E65735A
:1001F0002D6F6B006368616E6E656C732D6F6B00A5
:10020000666164652D726174652D6F6B006E657437
:100210006C69737400637265617465006E657477F0
:100220006F726B0067726F7570006C61737400643D
:10023000656661756C740064656661756C740066F2
:100240006164652D72617465006C617374006C6526
:1002500076656C006C6173740064656661756C74BE
:10026000006C69676874696E670067726F7570000B
:100270006E6574776F726B00636F6D6D616E640095
:100280006E6574696E666F007363656E652D636F6E
:10029000756E74006465766C6973740073636E6C5C
:1002A000697374006465766963652D636F756E7438
:1002B00000646576696365006372656174650073E7
:1002C00063656E650072657175657374006E6F7439
:1002D0002D666F756E64006F6B0073746174757357
:1002E000006C69676874696E67007363656E6500AA
:1002F00073636E696E666F006465766963652D630E
:100300006F756E740064656661756C74006C617302
:1003100074006C69676874696E67007363656E6505
:10032000003000636F6D6D616E64006163746976A7
:10033000617465006C6173740064656661756C74EA
:10034000006465616374697661746500676F746FDA
:100350000078706C00686F7000736F757263650071
:100360007461726765740073746174002A0070614F
:100370007273650078706C00636F6E666967006CFD
:100380006973740063757272656E7400636F6D6D6E
:10039000616E640072657175657374007265737067
:1003A0006F6E73650078706C0068626561740065DB
:1003B0006E6400626173696300696E746572766170
:1003C0006C006F7074696F6E0078706C00417264BD
:1003D000756978504C0000000000240027002A00B6
:1003E00000000000250028002B0000000000230072
:1003F0002600290004040404040404040202020286
:1004000002020303030303030102040810204080D7
:100410000102040810200102040810200000000757
:1004200000020100000304060000000000000000BC
:10043000494E46494E4954594E414ECDCCCC3D0AC9
:10044000D7233C17B7D13877CC2B329595E6241FAC
:10045000B14F0A000020410000C84200401C462065
:10046000BCBE4CCA1B0E5AAEC59D74008D05AE0BAA
:100470007D0EB60FC10F17107E158515461FE82497
:100480004F28794D155304586E5ACA5AE124724DBB
:100490000E53FD5711241FBECFEFD8E0DEBFCDBFF6
:1004A00014E0A0E0B1E0EAE9F5EC02C005900D929D
:1004B000A43FB107D9F71CE0A4EFB4E001C01D923E
:1004C000AB32B107E1F714E0CCE8D4E004C02297E6
:1004D000FE010E947A62CC36D107C9F70E94435BC5
:1004E0000C94C0620C940000CF93DF93BC01823067
:1004F000910510F462E070E0A091270CB091280CF7
:10050000ED01E0E0F0E040E050E021C08881998119
:100510008617970769F48A819B81309719F0938336
:10052000828304C09093280C8093270CFE0134C072
:100530006817790738F44115510519F084179507A4
:1005400008F4AC01FE018A819B819C01E90120979E
:10055000E9F641155105A9F1CA01861B970B0497CD
:1005600008F4BA01E0E0F0E02AC08D919C91119767
:1005700084179507F9F46417750781F412968D9125
:100580009C911397309719F09383828304C09093C2
:10059000280C8093270CFD0132964CC0CA01861BA3
:1005A000970BFD01E80FF91F6193719302978D93EB
:1005B0009C9340C0FD01828193819C01D9011097D9
:1005C000A1F68091250C9091260C892B41F4809105
:1005D0001E0190911F019093260C8093250C409151
:1005E0002001509121014115510541F44DB75EB7ED
:1005F00080911C0190911D01481B590B2091250CE5
:100600003091260CCA01821B930B8617970780F046
:10061000AB014E5F5F4F8417950750F0420F531F99
:100620005093260C4093250CF9016193719302C0FD
:10063000E0E0F0E0CF01DF91CF910895CF93DF9319
:10064000009709F450C0EC0122971B821A82A091F6
:10065000270CB091280C109709F140E050E0AC173E
:10066000BD0708F1BB83AA83FE0121913191E20FFE
:10067000F31FAE17BF0779F48D919C911197280F46
:10068000391F2E5F3F4F3983288312968D919C919D
:1006900013979B838A834115510571F4D093280CDD
:1006A000C093270C20C012968D919C911397AD0199
:1006B000009711F0DC01D3CFFA01D383C2832191DB
:1006C0003191E20FF31FCE17DF0769F4888199811A
:1006D000280F391F2E5F3F4FFA01318320838A8113
:1006E0009B8193838283DF91CF910895A0E0B0E056
:1006F000ECE7F3E00C949162EC01A880B980CA8029
:10070000DB80A114B104C104D10441F484E2A82E19
:1007100089EDB82E8BE5C82E87E0D82EC601B5012D
:100720002DE133EF41E050E00E94496227EA31E4D5
:1007300040E050E00E94F5617B018C01C601B501EB
:100740002DE133EF41E050E00E944962CA01B90156
:100750002CEE34EF4FEF5FEF0E94F5616E0D7F1DC1
:10076000801F911F97FF04C06150704080409048E7
:10077000688379838A839B839B01AC015F77B9018E
:10078000CA01CDB7DEB7EAE00C94AD620E947603F1
:10079000089582E291E00E94760308956093220119
:1007A0007093230180932401909325010895662777
:1007B00077270C94EF03FB01DC0104C08D910190BD
:1007C000801921F441505040C8F7881B990B0895B7
:1007D000FB01DC0101900D920020E1F70895A0E0FB
:1007E000B0E0E5EFF3E00C948F62EC015B01611582
:1007F000710519F0FB0191838083F9908F2D90E0B2
:100800000E947E62892BC9F7FDE2FF1621F4F99060
:10081000EE24E39405C02BE2F21609F4F990EE24DD
:100820008E0101501040C80160E374E043E050E0E5
:100830000E944F05892B01F58E010E5F1F4FC801E5
:1008400063E374E045E050E00E944F05892B19F402
:100850008E01095F1F4FA114B10419F0F501118336
:100860000083E0FC04C070E090E080E814C070E019
:1008700090E080E86FEF08C1C80168E374E043E0EE
:1008800050E00E944F05892B69F4A114B10429F4AA
:1008900070E090E080EC6FE7F7C02296F501D1831D
:1008A000C083F6CF8824992440E050E060E070E0F7
:1008B000EF2DE053EA30A0F5F2E0EF2A8E2D90E024
:1008C0009C0128703070E2FE06C0232B79F5089455
:1008D000811C911C2BC0232B19F0089481089108CE
:1008E000DB01CA0112E0880F991FAA1FBB1F1A95CE
:1008F000D1F7480F591F6A1F7B1F440F551F661FF2
:10090000771F4E0F511D611D711D483929E952078E
:1009100029E9620729E1720748F084E0E82A06C065
:10092000EE3F31F4E3FC39C098E0E92AF990C0CFFA
:10093000E53311F0E53189F529912D3219F4E0E123
:10094000EE2A05C02B3219F081E090E003C0299116
:1009500082E090E0E22FE053EA3018F0C81BD90B98
:100960001CC020E030E0FCE020383F075CF4C90107
:10097000880F991F880F991F280F391F220F331FC7
:100980002E0F311DE991E053EA3068F3E4FE03C015
:10099000309521953F4F820E931ECE2CDD24E1FE33
:1009A00007C0A114B10421F02197F501D183C083C0
:1009B000CB01BA010E94E0607B018C01F3E0CF2201
:1009C000DD2423E0C216D10421F417FB109517F99A
:1009D000109557016801C801B70120E030E040E000
:1009E00050E00E944360882309F44AC097FE0DC07E
:1009F0002FE4E22E24E0F22E9094819491089394B7
:100A0000C0E2D0E000E010E012C097E6E92E94E0EA
:100A1000F92EF6CFF7012591359145915491C601F4
:100A2000B5010E9492615B016C018C1A9D0A8C16C3
:100A30009D0684F7D595C7950F5F1F4F06301105AA
:100A400029F08CEF9FEFE80EF91EF1CFC501D6011A
:100A50007C018D018C2D880F8D2D881F8F3F51F0CB
:100A6000C601B50120E030E040E050E00E94436064
:100A7000882331F482E290E090932A0C8093290C31
:100A80007E2D9F2D802F612F272F392F482F562FF6
:100A9000B901CA01CDB7DEB7ECE00C94AB62FB0143
:100AA000DC014150504088F08D9181341CF08B3531
:100AB0000CF4805E659161341CF06B350CF4605E63
:100AC000861B611171F3990B0895881BFCCFF9996E
:100AD000FECF72BD61BDF89A80B50895F999FECF39
:100AE0001FBA72BD61BD40BD0FB6F894FA9AF99A6B
:100AF0000FBE0895FB0180E38083842F82958F7061
:100B00004F704A3014F4405D01C0495C4183319715
:100B1000882311F0482FF1CF08950F9385EF94E0CB
:100B200060E040E020E000E00E94BE5A0F9108958E
:100B30000F931F938C01625E7F4F0E94285BC80158
:100B40001F910F9108950F931F938C016A5E7F4F41
:100B50000E94285BC8011F910F9108950F931F9366
:100B60008C016E5E7F4F0E94285BC8011F910F9120
:100B700008950F931F938C01625F7F4F0E94285B43
:100B8000C8011F910F9108952F923F924F925F924B
:100B90006F927F928F929F92AF92BF92CF92DF928D
:100BA000EF92FF920F931F93DF93CF93CDB7DEB7F2
:100BB000E8970FB6F894DEBF0FBECDBF5C013A01D7
:100BC0004B0129010E94565E7B018C01F7E4CF2E78
:100BD000D12CCA0CDB1C14C00E94565E6E197F0912
:100BE000800B910B661677068806990618F4772411
:100BF0007A941AC262E370E080E090E00E94645E42
:100C0000C6010E948B101816190634F7C601BE01E2
:100C1000635F7F4F42E250E00E943D108D8582303D
:100C200009F0FEC12CE530E0A20EB31EF501808173
:100C3000918124EA3FEFA20EB31E8334910509F09F
:100C4000EFC129893A894B895C89E52EFF24002769
:100C50001127B22FAA2799278827E82AF92A0A2BD1
:100C60001B2BB42FA32F922F882780709070B07009
:100C7000E82AF92A0A2B1B2B232F342F452F55271F
:100C8000207040705070E22AF32A042B152BF201D9
:100C9000E082F18202831383B501685F7F4FCE014A
:100CA000899646E050E00E94DB03009799F4F50135
:100CB00080819181A281B381E816F9060A071B079A
:100CC00048F084819581A681B7818E159F05A00784
:100CD000B10728F4C6010E9405107724A5C18D8DA7
:100CE0009E8DAF8DB8A1F50186879787A08BB18BBC
:100CF00000E010E0C6010E9460100F5F1F4F0E3C25
:100D00001105C1F795012E5E3F4F38AF2FABC501DE
:100D100046969EAB8DABF5017E96FCABEBAB8AE1C4
:100D2000882E912C8A0C9B1C95012A5D3F4F3AAB73
:100D300029ABC5018A9698AB8FA702E2202E312CF1
:100D40002A0C3B1C772418E5412E512C4A0C5B1CC5
:100D50005FC1C6010E9460108333910509F414C17C
:100D6000843391058CF48130910569F182309105CD
:100D700024F4892B09F44CC140C18330910551F111
:100D8000069709F03AC142C08A33910509F490C030
:100D90008B3391053CF48533910569F0C69709F0D2
:100DA0002CC150C08B33910509F4B8C08F3F910519
:100DB00009F023C12DC1C6010E946010C6010E9426
:100DC0006010782E25C1C6010E946010C6016FA96F
:100DD00078AD62C0C6010E946010182FC6016DA9CF
:100DE0007EA944E050E00E943D10EE24FF24012F34
:100DF00010E00450104006C0C6010E946010089424
:100E0000E11CF11CE016F106BCF302C1C6010E9410
:100E10006010182FC6016BA97CA944E050E00E9425
:100E20003D10EE24FF24012F10E00450104006C0B6
:100E3000C6010E9460100894E11CF11CE016F10646
:100E4000BCF3E6C0C6010E946010182FF401808137
:100E50009181A281B3810097A105B105D9F0CE019E
:100E60000196B4010E94285B22EF34E038872F837B
:100E7000F201208131814281538129873A874B8752
:100E80005C878B819C81AD81BE8182179307A4070B
:100E9000B50759F4C601B40144E050E00E943D108A
:100EA000B7C0C6010E94601011501123D1F7B0C025
:100EB000C6010E946010C60169A97AA944E050E009
:100EC0000E943D10F50126A137A140A551A5E52EB0
:100ED000FF2400271127B22FAA2799278827E82A5D
:100EE000F92A0A2B1B2BB42FA32F922F882780704F
:100EF0009070B070E82AF92A0A2B1B2B232F342F6D
:100F0000452F5527207040705070E22AF32A042B99
:100F1000152BE6A2F7A200A711A77AC0C6010E946E
:100F20006010C6016FA578A944E050E00E943D1012
:100F3000F50122A533A544A555A5E52EFF240027DC
:100F40001127B22FAA2799278827E82AF92A0A2BDE
:100F50001B2BB42FA32F922F882780709070B07016
:100F6000E82AF92A0A2B1B2B232F342F452F55272C
:100F7000207040705070E22AF32A042B152BE2A651
:100F8000F3A604A715A744C0C6010E946010C601BD
:100F9000B10144E050E00E943D10F50122A133A1CF
:100FA00044A155A1E52EFF2400271127B22FAA271F
:100FB00099278827E82AF92A0A2B1B2BB42FA32F5D
:100FC000922F882780709070B070E82AF92A0A2B37
:100FD0001B2B232F342F452F552720704070507026
:100FE000E22AF32A042B152BE2A2F3A204A315A3F1
:100FF000E6A6F7A600AB11AB0BC0C6010E946010BD
:10100000182F04C0C6010E94601011501123D1F79F
:10101000C6010E94E90F181619060CF49ACE01C0F9
:101020007724C6010E940510872DE8960FB6F89424
:10103000DEBF0FBECDBFCF91DF911F910F91FF900B
:10104000EF90DF90CF90BF90AF909F908F907F9068
:101050006F905F904F903F902F9008950E96FC01F7
:1010600084E1DF011D928A95E9F708954F925F921E
:101070006F927F928F929F92AF92BF92CF92DF92A8
:10108000EF92FF920F931F93DF93CF93CDB7DEB70D
:10109000E2970FB6F894DEBF0FBECDBF6C01462EAF
:1010A0003A01F3E18F2E912C8C0E9D1EE0E25E2E14
:1010B000F401252D11922A95E9F7CE0107966FEFDD
:1010C0004FEF2FEF0FEF0E94BE5A77E4A72EB12CFF
:1010D000AC0CBD1C82EF94E09E878D8789859A8534
:1010E000AB85BC858F87988BA98BBA8BC501BE0158
:1010F000635F7F4F43E450E00E94FF108F5F9F4F7C
:1011000009F4F3C081E08B8B8C8B86E08D8B1E8A7B
:10111000F6012481358146815781E52EFF24002781
:101120001127B22FAA2799278827E82AF92A0A2BFC
:101130001B2BB42FA32F922F882780709070B07034
:10114000E82AF92A0A2B1B2B232F342F452F55274A
:10115000207040705070E22AF32A042B152BEB828A
:10116000FC820D831E83EF8AF88E098F1A8F7B8E87
:101170006C8E80E890E09A8389839E8F8D8FC50165
:10118000B4014CE150E00E94DF10F40111925A9436
:10119000E9F7A8E06A2E712C6C0C7D1CD401F301D8
:1011A00086E001900D928150E1F78E010D5E1F4F98
:1011B000C501B80140E150E00E94DF1080E2F80173
:1011C00011928A95E9F7EE24FF24902E012FC50194
:1011D000692D702F40E250E00E94DF100894E11C5E
:1011E000F11CF6E0EF16F10491F793E69B8B82E891
:1011F0008C8B83E58D8B9E8B85E38F8B91E0988F15
:10120000498E8DE38A8F87E08B8F9C8FDE015D9600
:10121000F30186E001900D928150E1F78CE08BA301
:101220008CA38E010D5E1F4FCE01859660E071E0AC
:101230000E94E803C601BE01655D7F4FF60143854C
:101240000E947A05C601BE01635D7F4FF6014485A9
:101250000E947A05C601BE01615D7F4FF60145859A
:101260000E947A05C501B8014EE150E00E94DF10EE
:10127000F3E04F16F1F482E38B8B94E09C8BF60144
:1012800086858D8B87858E8B80898F8B8189888FD2
:1012900086E3898F9A8F828D8B8F838D8C8F848D3F
:1012A0008D8F858D8E8FC501B8014CE050E00E9476
:1012B000DF1087E38B8B96E09C8B81E08D8B83E046
:1012C0008E8B9F8B8FE0888F8AE3898F8BE38A8F49
:1012D0008FEF8B8FC501BE016D5E7F4F49E050E0FF
:1012E0000E94DF10C5010E94FA10E2960FB6F89432
:1012F000DEBF0FBECDBFCF91DF911F910F91FF9049
:10130000EF90DF90CF90BF90AF909F908F907F90A5
:101310006F905F904F9008952F923F924F925F92FF
:101320006F927F928F929F92AF92BF92CF92DF92F5
:10133000EF92FF920F931F93DF93CF9300D000D0D3
:10134000CDB7DEB78C0161E070E080E090E020ED89
:1013500037E040E050E00E94F05DD80114966C93B5
:10136000149715967C93159716968C931697179647
:101370009C9317976C9311967C93119712968C936C
:10138000129713969C9377E4272E312C200E311E52
:10139000C10164E470E00E94A311882319F466245B
:1013A000772422C10E94565E4B015C01662477249B
:1013B00066E4C62ED12CC00ED11E5EE3452E512C04
:1013C000400E511E42E0E42EFBC0882309F5F801CF
:1013D00084819581A681B7810196A11DB11D848369
:1013E0009583A683B7830E94565E681979098A0996
:1013F0009B0928EE33E040E050E00E942762C801DC
:1014000061E0A9010E94360881E0D6018C93C2C038
:10141000843001F5F80184819581A681B781019618
:10142000A11DB11D84839583A683B7830E94565E58
:10143000681979098A099B0928EE33E040E050E0F9
:101440000E942762C80163E0A9010E943608D60104
:10145000EC92A0C0813069F5F20140815181628136
:101460007381C8019E012F5F3F4F0E94C405F82E73
:10147000F2E08F1709F089C089819A81AB81BC8124
:10148000F80184839583A683B7830E94565E68190A
:1014900079098A099B0928EE33E040E050E00E9478
:1014A0002762C80163E0A9010E943608D601FC92B8
:1014B00071C0823009F06EC0F201408151816281B9
:1014C0007381C8019E012F5F3F4F0E94C405F82E13
:1014D000F5E08F1709F053C0E3E0D601EC93F80173
:1014E00082A193A1A4A1B5A10097A105B10541F4E2
:1014F00084E893E0A0E0B0E082A393A3A4A3B5A303
:10150000F80186A197A1A0A5B1A50097A105B105F5
:1015100061F482A193A1A4A1B5A1B695A7959795D1
:10152000879586A397A3A0A7B1A7F80182A593A545
:10153000A4A5B5A50097A105B10561F486A197A161
:10154000A0A5B1A5880F991FAA1FBB1F82A793A7AB
:10155000A4A7B5A7F80186A197A1A0A5B1A586A7C4
:1015600097A7A0ABB1AB82A593A5A4A5B5A582AB67
:1015700093ABA4ABB5ABA1E06A2E712C0BC0F6E027
:101580008F1719F4D6011C9205C0BFEFFB1611F49A
:10159000F6011082F1E06F16710491F00E94565E20
:1015A000681979098A099B09D801DA962D913D912C
:1015B0004D915C91DD97261737074807590728F0AA
:1015C000F6018081833009F000CFC1010E948E11A5
:1015D000F80184819581A681B7810196A11DB11D75
:1015E00084839583A683B783C3010F900F900F90D8
:1015F0000F90CF91DF911F910F91FF90EF90DF90AF
:10160000CF90BF90AF909F908F907F906F905F90A2
:101610004F903F902F900895CF92DF92EF92FF92DC
:101620000F931F93CF93DF93EC01D62EC72E1AA2F0
:101630001BA21CA21DA21EA21FA218A619A61AA6B2
:101640001BA61CA61DA61EAA1FAA18AE19AE2AAF5D
:101650003BAF4CAF5DAFEE96E882F9820A831B8305
:10166000EE978E01085F1F4F86E0F80111928A9570
:10167000E9F7CE010E942E08D8012D2D3C2DC9017D
:10168000FC0186E001900D928150E1F7CA5BDF4FCB
:101690001882C654D040CE010E948C09DF91CF91B0
:1016A0001F910F91FF90EF90DF90CF9008959C01D4
:1016B000FB0182819381A481B581F90182839383A7
:1016C000A483B583178216820895CF93DF93FB011D
:1016D00001C0319680818823E1F7EB01A0E0B0E002
:1016E00020E030E021C06E3261F42F3F310509F077
:1016F0007CF5FA01EA0FFB1F2283119620E030E00F
:1017000012C0C901E3E0880F991FEA95E1F7220FA3
:10171000331F820F931F262F332727FD3095205329
:101720003040280F391F21966881662319F0A430B4
:10173000B105CCF22F3F310509F054F4A430B105C6
:101740003CF4A40FB51F12962C9321E030E002C0A8
:1017500020E030E0C901DF91CF9108950F938BEF26
:1017600094E060E040E020E000E00E94BE5A0F916B
:1017700008952F923F924F925F926F927F928F9235
:101780009F92AF92BF92CF92DF92EF92FF920F9310
:101790001F93DF93CF93CDB7DEB769970FB6F89459
:1017A000DEBF0FBECDBF4C018B011A010E94565EF9
:1017B0002B013C01F8E0EF2EF12CE80CF91C58014C
:1017C000CC24DD2414C00E94565E64197509860974
:1017D0009709A616B706C806D90618F42FEF3FEFEB
:1017E0000BC162E370E080E090E00E94645EC7019C
:1017F0000E948B101816190634F7F40122813381E8
:1018000044815581818D928DA38DB48D8A879B876C
:10181000AC87BD87281739074A075B0709F0EAC07C
:10182000858D968DC59709F0E5C000C18E01025FD8
:101830001F4FC701B8014CE050E00E943D10F80175
:10184000528143815B834A83F401268137818E85EF
:101850009F852817390711F457FD06C0C7010E945C
:1018600005102CEF3FEFC8C04F705270452B31F080
:10187000C7010E9405102BEF3FEFBEC0F801768034
:1018800067806114710441F0AA24BB2448012E0131
:101890000894411C511C28C0C7010E9405102AEF62
:1018A0003FEFAAC0C701B20141E050E00E943D10E5
:1018B0008981882321F408C0C7010E9460108981B2
:1018C000815089838F5FC1F78981882359F700E0B0
:1018D00010E0C7010E9460100F5F1F4F0430110518
:1018E000C1F70894A11CB11CF401D480C580AC14CC
:1018F000BD04C0F244245524C701BE016F5F7F4F71
:1019000041E050E00E943D109981892F807C61F474
:10191000992321F40DC0C7010E9460108981815074
:1019200089838F5FC1F704C0C7010E9460101982CC
:101930008981882309F7C701BE016C5F7F4F42E0B0
:1019400050E00E943D10C701BE016A5F7F4F42E038
:1019500050E00E943D1000E010E0C7010E946010BE
:101960000F5F1F4F04301105C1F7C701BE016E5F45
:101970007F4F42E050E00E943D10DC80CD80F1E0DE
:10198000CF16D10419F5BE80AF8081E0A816B1044E
:10199000E9F49A818B81049731F0C7010E94051008
:1019A00027EF3FEF29C0E2E0F0E02E0E3F1EC70117
:1019B000B10144E050E00E943D1021E030E01CC045
:1019C000C7010E9460100F5F1F4F02C000E010E0CF
:1019D0009A808B800815190598F30894411C511CB6
:1019E0004614570408F488CFC7010E94051026EF5B
:1019F0003FEF02C02EEF3FEFC90169960FB6F89492
:101A0000DEBF0FBECDBFCF91DF911F910F91FF9031
:101A1000EF90DF90CF90BF90AF909F908F907F908E
:101A20006F905F904F903F902F90089582EF94E0D9
:101A300099878887C7010E94E90F0C970CF0F6CEB2
:101A40002DEF3FEFD9CF6F927F928F929F92AF92FF
:101A5000BF92CF92DF92EF92FF920F931F93DF938B
:101A6000CF9300D00F92CDB7DEB78C01F62EE72EC4
:101A70000E94565EF80177836683B8E0CB2ED12CA6
:101A8000C00ED11E0A5F1F4FC601B80142E050E0F0
:101A90000E94DF1081E090E09B838A83A2E08A2E7F
:101AA000912C8C0E9D1EC601B40142E050E00E94B4
:101AB000DF1080E091E09B838A83C601B40142E09D
:101AC00050E00E94DF101B821A82C601B40142E07E
:101AD00050E00E94DF10C601B40142E050E00E94D5
:101AE000DF10C601B40142E050E00E94DF102F2D4C
:101AF0003E2DC9018C017C013E010894611C711CC2
:101B000020C00894E11CF11CF7018081882311F0AA
:101B10008E32B9F75701A01AB10A1A141B0474F4D3
:101B20008E2D801B8983C601B30141E050E00E94E5
:101B3000DF10C601B801A5010E94DF1087010F5F09
:101B40001F4FF7018081882311F07801DDCF1982C2
:101B5000C601BE016F5F7F4F41E050E00E94DF1081
:101B600000E011E01B830A83C601B40142E050E0AB
:101B70000E94DF101B830A83C601B40142E050E0DB
:101B80000E94DF1081E090E00F900F900F90CF91B6
:101B9000DF911F910F91FF90EF90DF90CF90BF905A
:101BA000AF909F908F907F906F9008958F929F92AB
:101BB000AF92BF92CF92DF92EF92FF920F931F935B
:101BC000DF93CF9300D000D000D0CDB7DEB76C014B
:101BD0007B014A010E94650B892B19F001E010E09E
:101BE00067C0F60122813381448155818091FD04D3
:101BF0009091FE04A091FF04B091000528173907C9
:101C00004A075B0719F40EEF1FEF52C018E0A12E30
:101C1000B12CAC0CBD1C0E94565E9B01AC012F7018
:101C2000307020503C4FC501B9010E94A311813092
:101C300019F000E010E03CC082EF94E09A838983C1
:101C4000F60182819381A481B5818B839C83AD83CE
:101C5000BE83C501BE016F5F7F4F45E350E00E9428
:101C6000FF108C01009709F1C601B7010E94230DF6
:101C70008C010097D1F0C5010E94FA108C010097E9
:101C8000A1F0EE24FF24C60168E873E1A4010E94DC
:101C9000B90B8C010894E11CF11CF3E0EF16F10480
:101CA00021F08FEF0F3F180771F3C5010E948E11CD
:101CB000C80126960FB6F894DEBF0FBECDBFCF91F8
:101CC000DF911F910F91FF90EF90DF90CF90BF9029
:101CD000AF909F908F900895DB01FC0122EF34E0DC
:101CE0003183208312962D913D914D915C911597F2
:101CF000228333834483558308950F9381E195E0D4
:101D000060E040E020E000E00E94BE5A89E095E0FB
:101D10000E94395B0F910895EF92FF920F931F93EA
:101D2000182F092FE82EF92EC7010E94395B82E097
:101D300090E0E80EF91E85E090E0B70144E050E045
:101D40000E946F14812F902F1F910F91FF90EF90A1
:101D50000895EF92FF920F931F93182F092FE82EEB
:101D6000F92EC7010E94395B82E090E0E80EF91E6F
:101D70008FE090E0B70144E050E00E946F14812FA3
:101D8000902F1F910F91FF90EF9008956F927F9287
:101D90008F929F92AF92BF92CF92DF92EF92FF927B
:101DA0000F931F933C015B016A0149018BE295E0AF
:101DB0000E942E1589E090E0B50146E050E00E94B7
:101DC0004F1382E090E0C80ED91E8FE090E0B6017C
:101DD00044E050E00E944F130E5F1F4F81E090E0FF
:101DE000B80144E050E00E944F13E2E0F0E0EE0E54
:101DF000FF1E85E090E0B70144E050E00E944F13E1
:101E0000F40182819381A481B581F301828393835C
:101E1000A483B5831F910F91FF90EF90DF90CF9037
:101E2000BF90AF909F908F907F906F900895CF92CA
:101E3000DF92EF92FF920F931F93DF93CF93CDB773
:101E4000DEB76E970FB6F894DEBF0FBECDBF6C0144
:101E50007B0182E690E00E94555B8C01895B9F4F7D
:101E60000E940811F601178306838BE295E00E9419
:101E70002E1589E090E0B70146E050E00E944F1334
:101E8000CE01019660E040E020E000E00E94BE5AF2
:101E90008FE090E0BE016D5F7F4F44E050E00E9414
:101EA0004F13F60186819781B70120E63AEE40E0B4
:101EB00050E0F0EAEF2EFFE0FF2E012D112D0E94E1
:101EC0000C0B8C018130910509F040C0F601668150
:101ED0007781CE0107960E94B9058FE090E0BE01A0
:101EE000675F7F4F44E050E00E944F13F601668128
:101EF0007781CE010D960E94A30581E090E0BE019E
:101F0000615F7F4F44E050E00E944F13F60166810D
:101F10007781CE0143960E94AE0585E090E0BE0138
:101F20006B5E7F4F44E050E00E944F13F6016681E4
:101F30007781CE0149960E9498058B8D9C8DAD8D41
:101F4000BE8DF60182839383A483B583C8016E9608
:101F50000FB6F894DEBF0FBECDBFCF91DF911F91BA
:101F60000F91FF90EF90DF90CF9008950F9387E14E
:101F700095E060E040E020E000E00E94BE5A0F9152
:101F800008950F938DE195E060E040E020E000E0EF
:101F90000E94BE5A0F910895DC01ED91FC91008CD6
:101FA000F18DE02D09950895DB01FC0122EF34E06D
:101FB0003183208351962D913D914D915C915497A1
:101FC00022833383448355830895FC018589968950
:101FD0000895FC01818D928D0895DF93CF930F9228
:101FE000CDB7DEB7FC016983A081B18112962D9136
:101FF0003C911397BE016F5F7F4F41E050E0F901C4
:1020000009950F90CF91DF910895CF93DF93EC0165
:1020100007C0E881F9810680F781E02DCE0109959E
:10202000898D9A8D892BA9F7DF91CF9108950F9310
:1020300083E295E060E040E020E000E00E94BE5ACC
:102040000F910895DF93CF930F92CDB7DEB7FC01C8
:10205000818D928D892B19F42FEF3FEF09C0848574
:10206000BE016F5F7F4F0E94E5128981282F30E00B
:10207000C9010F90CF91DF910895CF93DF93EC01C9
:102080009A01498D5A8D41155105A1F02417350744
:1020900010F08C8502C08C85A9010E94F4129C016D
:1020A000181619063CF4898D9A8D821B930B9A8F12
:1020B000898F02C02FEF3FEFC901DF91CF910895C3
:1020C0000F931F93DF93CF930F92CDB7DEB78C01A1
:1020D000FC01818D928D892BA9F08485BE016F5FF3
:1020E0007F4F41E050E00E94F4121816190654F494
:1020F000F801818D928D0197928F818F8981282F90
:1021000030E002C02FEF3FEFC9010F90CF91DF9178
:102110001F910F910895EF92FF920F931F93DF93FA
:10212000CF93CDB7DEB728970FB6F894DEBF0FBEBA
:10213000CDBF8C01DC01ED91FC910284F385E02D93
:1021400009958BE295E0F80164850E942014892BA3
:1021500019F420E030E025C0D8011C968C917E0156
:102160000894E11CF11CB70148E050E00E94F41211
:102170009C0118161906ACF4C8010F96B7010E940D
:102180001B5B9D8180E02E81820F911DF801968B53
:10219000858B9F8180E02885820F911D928F818F92
:1021A0009C01C90128960FB6F894DEBF0FBECDBFC3
:1021B000CF91DF911F910F91FF90EF9008950F93B2
:1021C0001F938C01FB019A01DC0157966D917C9164
:1021D00058971C968C91AF010E94B5129C01F80192
:1021E0008789908D820F931F908F878BC9011F91D4
:1021F0000F910895FC0184850E94EE110895FC0161
:10220000108E178A6E5F7F4F84850E948A12089510
:10221000FC011382128288EE93E0A0E0B0E0848398
:102220009583A683B78380E391E09183808384E0E4
:102230008487CF010F960E94395B08956F927F9239
:102240008F929F92AF92BF92CF92DF92EF92FF92C6
:102250000F931F93DF93CF93CDB7DEB7E5970FB6FC
:10226000F894DEBF0FBECDBF4C015B013A0183E1A4
:10227000E82EF12CEC0EFD1EC7010E94395BCE0149
:102280004B960E9408116E010894C11CD11CC60116
:102290000E94395B8E01095F1F4FC80169E075E03C
:1022A0000E946C0EC701B8010E94570BC701B5010F
:1022B000A6010E94D60D9C0181309105C9F4D4017C
:1022C000ED91FC910088F189E02D82EF94E09E87EA
:1022D0008D878B819C81AD81BE818F87988BA98BE7
:1022E000BA8BC401BE01635F7F4FA30109959C01B6
:1022F000C901E5960FB6F894DEBF0FBECDBFCF91F2
:10230000DF911F910F91FF90EF90DF90CF90BF90E2
:10231000AF909F908F907F906F900895CF93DF93B1
:10232000EC018C85843061F00E941212EC85F0E0A3
:10233000EE0FFF1FEF5FFA4F1182108284E08C874F
:10234000DF91CF910895CF92DF92EF92FF920F939A
:102350001F93CF93DF937C016B01FC018485843054
:1023600019F5C0E0D0E003E014E0C8010E94761344
:10237000882311F0883119F4F701C48706C021962B
:1023800000501F4FC430D10581F7F7018485843098
:1023900059F0D686C586128E118E62E0A60120E025
:1023A0000E94511281E001C080E0DF91CF911F9126
:1023B0000F91FF90EF90DF90CF90089590E0982FCD
:1023C00088278E5F9B4F0E947613089590E0982F88
:1023D00088278E5F9B4F0E94351308951F93182FF7
:1023E0008BE295E0612F40E250E00E941C150CC08A
:1023F000812F0E94DE1183FF07C0812F68E10E94B8
:10240000E61120E030E00BC0812F0E94DE1184FF36
:10241000EFCF812F60E10E94E61121E030E0C90199
:102420001F9108951F93182F8BE295E0612F40E1D3
:1024300050E00E941C15812F6FEF0E94E6111F9142
:102440000895FF920F931F93F62E672F082F10E029
:102450000C5F1F4F102F0027C80140960E943513B4
:10246000C80141966F2D0E9435131F910F91FF9067
:102470000895FF920F931F93F62E672F082F10E0F9
:102480000C5F1F4F102F0027C80104960E943513C0
:10249000C80105966F2D0E9435131F910F91FF9073
:1024A0000895FF920F931F93CF93DF93082FF62E7B
:1024B000EA01122F862F8150853010F080E024C071
:1024C000802F0E9412121F2980E0902F9C5F612FA5
:1024D0000E943513209719F0802FBE010BC0609128
:1024E000290570912A056F5F7F4F70932A056093CD
:1024F0002905802F0E9439128BE295E0602F41E080
:1025000050E00E941C1581E0DF91CF911F910F9147
:10251000FF9008951F93CF93DF93182FFB01EA01DB
:102520008081882349F48181882331F48281882342
:1025300019F48381882391F0209781F0912F80E016
:10254000845F9B4FBF0144E050E00E944F13812FF6
:10255000BE010E94211221E030E002C020E030E004
:10256000C901DF91CF911F910895AF92BF92DF9281
:10257000EF92FF920F931F93CF93DF93D82EEB012F
:102580005A0189018BE295E06D2D0E94531480174A
:10259000910710F0780106C08BE295E06D2D0E9446
:1025A00053147C018BE295E06D2DAE0195018701FE
:1025B0000E949813C701DF91CF911F910F91FF9057
:1025C000EF90DF90BF90AF9008950F93282FAB014D
:1025D0008BE295E0622F21E030E001E00E94D1140F
:1025E00081E090E00F910895CF92DF92FF920F93D8
:1025F0001F93CF93DF93F82E6B018A018BE295E056
:102600006F2D0E942014EC01009769F49F2D80E04B
:102610008D5F9B4F0E9476138431D9F08823C9F0D7
:102620008C31B9F01FC0081719070CF4E8011C160B
:102630001D067CF48BE295E06F2DA6019E0100E063
:102640000E94D1148BE295E06F2D40E450E00E948F
:102650001C15CE01DF91CF911F910F91FF90DF905C
:10266000CF900895CFEFDFEFF4CF282F2A9880EF97
:102670008EBD0DB407FEFDCF8EB59EBD0DB407FE19
:10268000FDCF8EB52EBD0DB407FEFDCF8EB56EBD50
:102690000DB407FEFDCF8EB52A9A81E00895DC01C6
:1026A00020E030E090EF1DC02A989EBD0DB407FEDB
:1026B000FDCF8EB5BEBD0DB407FEFDCF8EB5AEBD50
:1026C0000DB407FEFDCF8EB5FB01E20FF31F808135
:1026D0008EBD0DB407FEFDCF11968EB52A9A2F5FE1
:1026E0003F4F2417350700F3CA010895282F2A9871
:1026F0008FE08EBD0DB407FEFDCF8EB59EBD0DB42F
:1027000007FEFDCF8EB52EBD0DB407FEFDCF8EB5F5
:102710001EBC0DB407FEFDCF8EB52A9A089590E039
:102720000496982F8827860F971F0E947613089586
:102730007F928F929F92AF92BF92CF92DF92EF9251
:10274000FF920F931F93CF93DF936C01762E7A0144
:1027500049015801862F64E270E00E948F13182F00
:10276000872D65E270E00E948F13C82FD0E0912F73
:1027700080E0C82BD92BCE0DDF1DAE015770872D01
:1027800090E0880F991FC80ED91EF6012081318173
:10279000240F351FCA018A0D9B1D8150984098F067
:1027A00000E018E0041B150BC901B401A8010E9448
:1027B0004F13A501401B510BF60180819181080D3B
:1027C000191DB80103C0C901B401A5010E944F132E
:1027D0007E01EA0CFB1C072D10E00C5F1F4F102F31
:1027E0000027C80184966F2D0E943513C801859675
:1027F0006E2D0E943513DF91CF911F910F91FF90A5
:10280000EF90DF90CF90BF90AF909F908F907F9090
:1028100008950F931F93182F66E270E00E948F13A4
:10282000082F812F67E270E00E948F13502F40E045
:10283000282F30E0242B352BC9011F910F910895CB
:10284000FF920F931F93CF93DF93F62EC0E0D0E05B
:102850008F2D0E9409148C01009721F08F2D0E946A
:102860000914EC01C017D10799F7CE01DF91CF9180
:102870001F910F91FF9008950F931F93182F60E2FF
:1028800070E00E948F13082F812F61E270E00E9498
:102890008F13502F40E0282F30E0242B352BC90117
:1028A0001F910F910895FF920F931F93CF93DF9382
:1028B000F62EC0E0D0E08F2D0E943C148C010097D2
:1028C00021F08F2D0E943C14EC01C017D10799F71D
:1028D000CE01DF91CF911F910F91FF900895DC0100
:1028E00020E030E09FE01DC02A989EBD0DB407FE99
:1028F000FDCF8EB5BEBD0DB407FEFDCF8EB5AEBD0E
:102900000DB407FEFDCF8EB51EBC0DB407FEFDCF86
:1029100011968EB5FB01E20FF31F80832A9A2F5F79
:102920003F4F2417350700F3CA010895CF92DF9275
:10293000EF92FF920F931F93CF93DF93690178017A
:102940005770C62FD0E02496CC0FDD1FC80FD91FBB
:1029500028813981240F351FC801840F951F8150AC
:10296000984088F000E018E0041B150BC901B6017F
:10297000A8010E946F14E01AF10A888199810C0D58
:102980001D1DB80102C0C901B601A7010E946F1444
:10299000DF91CF911F910F91FF90EF90DF90CF903B
:1029A00008958F929F92AF92BF92CF92DF92EF9253
:1029B000FF920F931F93CF93DF937C01A62E6A01A2
:1029C0004901B02E862F68E270E00E948F13182F05
:1029D0008A2D69E270E00E948F13C82FD0E0912FFA
:1029E00080E0C82BD92BC7016A2DAE019601840166
:1029F0000E949614BB2099F47E01E80CF91C0A2D64
:102A000010E00C5F1F4F102F0027C80188966F2D14
:102A10000E943513C80189966E2D0E943513DF91EF
:102A2000CF911F910F91FF90EF90DF90CF90BF90CB
:102A3000AF909F908F9008951F93162F962F80E050
:102A40008F5F9B4F642F0E943513812F61E070E0F0
:102A50000E948F138823C9F71F9108950F931F9326
:102A6000182F092F6CE271E080E090E00E94645E14
:102A70000E94F71E229A80E090E060E80E943513E1
:102A80008BE190E065E50E9435138AE190E065E511
:102A90000E943513212F302FC901FC0180E090E402
:102AA000918380838050904E918780878050984199
:102AB000329620E68030920799F71F910F91089582
:102AC000FC01158216821782DC0180E018961C92A8
:102AD00018978F5F11968032C9F710A612A611A61B
:102AE00005A8F6A9E02D309709F009950895FC0195
:102AF0007183608312820E94601508958BE395E0D4
:102B000067EF7BE00E947715089510927B05109285
:102B10007C0510927F051092810582E090E0A0E094
:102B2000B0E08093820590938305A0938405B093D1
:102B30008505109299051092A3051092A20584E5CF
:102B400091E09093A1058093A0051092A5050895AA
:102B5000FF920F931F93CF93DF938B010E94565EDA
:102B6000EB01FF24FA94FEBC0DB407FEFDCF8EB539
:102B70008F3F11F481E008C00E94565E6C1B7D0BF4
:102B80006017710780F380E0DF91CF911F910F9163
:102B9000FF900895FC01848160E00E94375F0895F2
:102BA000FC01848161E00E94375F0895DC016EBD05
:102BB000FA0120E030E00DB407FEFDCF80818EBD2C
:102BC0000DB407FEFDCF81818EBD2E5F3F4F329643
:102BD00082E02030380779F70DB407FEFDCF8FEF84
:102BE0008EBD0DB407FEFDCF8FEF8EBD0DB407FE79
:102BF000FDCF8FEF8EBD0DB407FEFDCF8EB51A96BB
:102C00008C931A978F71853011F481E0089581E1DA
:102C100015968C931597CD010E94D01580E00895EC
:102C2000FF920F931F93CF93DF93EC010E94565EA8
:102C30008B01FF24FA9409C00E94565E601B710B41
:102C40006D52714010F08FE00DC0FEBC0DB407FE58
:102C5000FDCF8EB58A878F3F79F38E3F11F481E0E7
:102C600006C08DE08D83CE010E94D01580E0DF91FB
:102C7000CF911F910F91FF900895CF93DF93EC01B7
:102C80008E818823D1F08FEF8EBD2F8138854FEF55
:102C900004C00DB407FEFDCF4EBD2F5F3F4FC901ED
:102CA000019781509240A8F338872F830DB407FE17
:102CB000FDCFCE010E94D0151E82DF91CF910895E5
:102CC000DF92EF92FF920F931F93CF93DF93EC016C
:102CD000D62E79018A010E943D16CE010E94CA15A6
:102CE000CE016CE271E00E94A8158D2D80648EBD2E
:102CF0000DB407FEFDCF28E130E0D801C701022E58
:102D000004C0B695A795979587950A94D2F78EBD7E
:102D10000DB407FEFDCF285030408FEF283F380715
:102D200061F7DD2011F485E906C088E0D81611F4BA
:102D300087E801C08FEF8EBD0DB407FEFDCF90E098
:102D40002FEF2EBD0DB407FEFDCF8EB587FF02C05D
:102D50009150B9F78A87DF91CF911F910F91FF9022
:102D6000EF90DF900895CF92DF92EF92FF920F9352
:102D70001F93CF93DF93EC017A018B016901411519
:102D800051056105710511F482E137C08B858330EF
:102D900039F029E0EE0CFF1C001F111F2A95D1F716
:102DA000CE0168E1A80197010E946016882311F006
:102DB00084E023C0CE016EEFA6010E94D6158823C1
:102DC000E9F0CE0168E572E00E94A815882311F4AD
:102DD00085E113C0CE016DE020E030E040E050E03E
:102DE0000E946016882341F48FEF8EBD0DB407FE5C
:102DF000FDCF8EB5882379F084E18D83CE010E94CA
:102E0000D01580E0DF91CF911F910F91FF90EF904F
:102E1000DF90CF900895CE010E94D01581E0F2CFCF
:102E20008F929F92AF92BF92CF92DF92EF92FF92DA
:102E30000F931F93CF93DF93EC015A016B0149016C
:102E40000115110509F47BC0C801820F931F815041
:102E5000924008F06FC08E81882371F0888199813B
:102E6000AA81BB81481759076A077B0729F48F811C
:102E700098858816990618F5A882B982CA82DB82DD
:102E80008B85833039F069E0AA0CBB1CCC1CDD1C9F
:102E90006A95D1F7CE0161E1A60195010E94601605
:102EA000882319F083E08D8345C0CE010E9410165F
:102EB000882309F43FC018861F8281E08E838FEF3C
:102EC0008EBD8F8198852FEF05C00DB407FEFDCF15
:102ED0002EBD019688159905C0F398878F83D80178
:102EE000119720E030E09FEF0BC00DB407FEFDCF3F
:102EF0008EB5F701E20FF31F80839EBD2F5F3F4F1A
:102F00002A173B0790F30DB407FEFDCF8EB5AE0D2B
:102F1000BF1D8C932F813885200F311F38872F8359
:102F20008985882319F02050324048F0CE010E9454
:102F30003D1605C0CE010E94D01580E001C081E0A1
:102F4000DF91CF911F910F91FF90EF90DF90CF9085
:102F5000BF90AF909F908F900895EF92FF920F9344
:102F60001F93790120E030E000E012E00E9410178A
:102F70001F910F91FF90EF9008956F927F928F9223
:102F80009F92AF92BF92CF92DF92EF92FF920F93F8
:102F90001F93CF93DF93EC017A018B012D812223C4
:102FA00009F480C08B899C89AD89BE8984179507F7
:102FB000A607B70708F476C085C0E114F10401053F
:102FC000110549F41E821F82188619861A861B86EF
:102FD0001C861D8665C02A853B854C855D85EB8DED
:102FE000FC8D858590E0099621503040404050404E
:102FF00039014A01082E04C0969487947794679407
:103000000A94D2F72F5F3F4F4F4F5F4F0894E1086C
:10301000F108010911095701680104C0D694C79449
:10302000B794A7948A95D2F70894E11CF11C011D6E
:10303000111DA614B704C804D90428F021153105C0
:103040004105510549F48F89988DA98DBA8D8E83DC
:103050009F83A887B98716C0A618B708C808D908DB
:1030600011C04E815F81688579858B8D9C8D94011F
:103070000E94CF1B0894A108B108C108D108882379
:1030800031F410C086E0882E912C8C0E9D1EA11468
:10309000B104C104D10429F7EA86FB860C871D8799
:1030A00081E001C080E0DF91CF911F910F91FF90EF
:1030B000EF90DF90CF90BF90AF909F908F907F90D8
:1030C0006F900895223009F078CFE6CFCF93DF9349
:1030D000EC01462F6E857F85888999890E94F81AB0
:1030E000882319F420E030E00AC08A89282F30E0D4
:1030F00095E0220F331F9A95E1F72F533A4FC901FC
:10310000DF91CF9108950F931F93CF93DF938C019D
:10311000FC0185818823D9F1848187FF35C0C801EE
:1031200061E00E946618EC01009789F1F801858141
:10313000823040F483899489A589B6898C8F9D8FCC
:10314000AE8FBF8FF8018789908D9B8F8A8F87897B
:10315000908DA18DB28DCD01AA27BB279D8B8C8B25
:10316000E091BF05F091C005309751F0BE016A5E55
:103170007F4FCE0148960995888D998D9B8B8A8BC0
:10318000F80184818F7784830E94BD1A01C080E09A
:10319000DF91CF911F910F910895CF93DF93EC01B1
:1031A0009C012A5F3F4F8B8D9C8D41E050E060E099
:1031B00070E00E94421C8823A1F08F89988DA98D10
:1031C000BA8D0097A105B10559F48E819F81A8851C
:1031D000B9858F8B988FA98FBA8F8C8180688C83EB
:1031E00081E0DF91CF9108952F923F924F925F92AD
:1031F0007F928F929F92AF92BF92CF92DF92EF9287
:10320000FF920F931F93DF93CF9300D000D000D095
:10321000CDB7DEB76C01162F072F5E834D83DC011F
:1032200015968C911597813009F070C114968C9188
:1032300081FF6CC18EC1F601438954896589768905
:1032400082859385A485B58584179507A607B7075A
:1032500031F0C6010E94BD17882309F457C1812FA0
:10326000902F9C0129012D803E8017C1D6015B96CD
:10327000ED91FC915C97DA01C90119E0B695A7952B
:10328000979587951A95D1F774807A9478227FEF75
:10329000872E71E0972E82229322772009F04EC06C
:1032A0008114910409F04AC0D60116964D915D91A2
:1032B0006D917C911997411551056105710581F456
:1032C00057968D919D910D90BC91A02D0097A105D1
:1032D000B10549F1F60186839783A087B1872EC097
:1032E000CF019E012F5F3F4F0E94CF1B882309F41F
:1032F00014C129813A814B815C81D6015B96ED91A5
:10330000FC915C978789803129F088EF9FEFAFEFC0
:10331000BFE004C088EF9FEFA0E0B0E028173907B6
:103320004A075B0730F0C6010E94CD18882331F4AC
:10333000EDC0F601268337834087518780E092E015
:103340008819990951018215930508F45C01D60189
:103350005B96ED91FC915C971696ED90FD900D912A
:103360001C9119978EEF9FEFAFEFBFEFE80EF91E9C
:103370000A1F1B1F058404C0EE0CFF1C001F111F39
:103380000A94D2F786859785A089B189E80EF91E3F
:103390000A1F1B1FE70CF11C011D111D90E0A9164F
:1033A00092E0B90651F58091260190912701A091F4
:1033B0002801B09129018E159F05A007B10761F47E
:1033C0008FEF9FEFAFEFBFEF809326019093270120
:1033D000A0932801B09329018091C1079091C20761
:1033E000B801A70192010E94B316882309F48EC088
:1033F000A0E0B2E04A0E5B1E3EC08114910409F5C4
:10340000F601228533854485558583899489A5896C
:10341000B689281739074A075B0798F00E94BD1A3A
:10342000882309F473C0E0922601F09227010093EB
:103430002801109329018091C30781608093C307FD
:1034400008C0C801B70141E00E94F81A882309F4B6
:103450005DC094012F533A4FA9014A0D5B1DD20163
:10346000F90102C08D918193E417F507D9F7E21BAA
:10347000F30B4E0E5F1E2A183B08950140E050E00A
:10348000F60182859385A485B585820F931FA41FBD
:10349000B51F82879387A487B587D6011A962D9189
:1034A0003D914D915C911D972114310409F0DECEC0
:1034B00053968D919D910D90BC91A02D82179307ED
:1034C000A407B50748F4F601238B348B458B568B44
:1034D00084818068848311C08091BF059091C0056C
:1034E000892B59F08D819E81892B39F0D601149654
:1034F0008C911497806814968C93F601848183FFD5
:103500000EC0C6010E948318882349F481E090E030
:10351000D60113969C938E9312971E821D828D81E5
:103520009E8126960FB6F894DEBF0FBECDBFCF9119
:10353000DF911F910F91FF90EF90DF90CF90BF90A0
:10354000AF909F908F907F905F904F903F902F9083
:10355000089582FD70CE83CEDF93CF930F92CDB7C7
:10356000DEB76983BE016F5F7F4F41E050E00E948C
:10357000F4180F90CF91DF9108958091C3078823AD
:1035800099F1409126015091270160912801709195
:1035900029018091C1079091C20721EC35E00E947A
:1035A000B316882319F14091C4075091C507609163
:1035B000C6077091C707411551056105710591F066
:1035C0008091C1079091C20721EC35E00E94B316AB
:1035D000882361F01092C4071092C5071092C607A5
:1035E0001092C7071092C30781E0089580E0089504
:1035F000DF92EF92FF920F931F937B018C01D42EE9
:103600008091260190912701A0912801B091290174
:103610008E159F05A007B107C1F00E94BD1A88232F
:10362000D9F08091C1079091C207B801A70121ECA0
:1036300035E00E94AD17882379F0E0922601F092E0
:10364000270100932801109329018091C3078D2938
:103650008093C30781E001C080E01F910F91FF902C
:10366000EF90DF9008954F925F926F927F928F92CA
:103670009F92AF92BF92CF92DF92EF92FF920F9301
:103680001F93CF93DF93EC016A017B01280139017D
:10369000423051056105710508F46FC089859A852E
:1036A000AB85BC850196A11DB11D84179507A607A2
:1036B000B70708F462C02B893C894D895E898F89E0
:1036C000803129F499278F2D7E2D6D2D09C0C701DA
:1036D000B60117E096958795779567951A95D1F776
:1036E0004B015C01820E931EA41EB51E8091260123
:1036F00090912701A0912801B0912901881699067F
:10370000AA06BB0639F0C501B40140E00E94F81AD0
:10371000882399F18F89803149F4F601F070EE0F1A
:10372000FF1FEF53FA4F518240820DC0F601EF7731
:10373000F070EE0FFF1FEE0FFF1FEF53FA4F4082A6
:103740005182628273828091C30781608093C30734
:103750008A89823080F08D819E81AF81B885880E04
:10376000991EAA1EBB1E8092C4079092C507A09204
:10377000C607B092C70781E001C080E0DF91CF911A
:103780001F910F91FF90EF90DF90CF90BF90AF907F
:103790009F908F907F906F905F904F900895CF9201
:1037A000DF92EF92FF920F931F93CF93DF93EC0181
:1037B0007A018B01690189859A85AB85BC85019663
:1037C000A11DB11D84179507A607B70708F450C0BF
:1037D0002B893C894D895E898F89803129F499270D
:1037E000812F702F6F2D09C0C801B701E7E09695B2
:1037F000879577956795EA95D1F7260F371F481F6C
:10380000591F8091260190912701A0912801B09124
:103810002901281739074A075B0739F0CA01B9019E
:1038200040E00E94F81A882319F18F89803159F4F9
:10383000F701F070EE0FFF1FEF53FA4F8081918177
:10384000A0E0B0E00EC0F701EF77F070EE0FFF1FC1
:10385000EE0FFF1FEF53FA4F80819181A281B38158
:10386000BF70F60180839183A283B38381E001C09E
:1038700080E0DF91CF911F910F91FF90EF90DF904B
:10388000CF9008952F923F924F925F926F927F92C6
:103890008F929F92AF92BF92CF92DF92EF92FF9260
:1038A0000F931F93DF93CF93CDB7DEB72F970FB64C
:1038B000F894DEBF0FBECDBF1C014A875B876C87C3
:1038C0007D873F872E87D9010D911D912D913C91C8
:1038D000011511052105310549F0480159010894E8
:1038E000811C911CA11CB11C198610C0FC01808098
:1038F0009180A280B38019868A859B85AC85BD8521
:103900000197A105B10511F491E09987D1011996AC
:103910008D919D910D90BC91A02D0196A11DB11D81
:103920008D839E83AF83B887750164014424552439
:1039300032018E010F5F1F4FF10181859285A385B2
:10394000B485481659066A067B0608F090C08D813A
:103950009E81AF81B8858C159D05AE05BF0550F4DD
:1039600082E0882E912CA12CB12CB2E0CB2ED12C50
:10397000E12CF12CC101B701A60198010E94CF1BD7
:10398000882309F474C089819A81AB81BC81A70125
:1039900096012F5F3F4F4F4F5F4F0097A105B10535
:1039A00019F049015A010DC0281939094A095B0962
:1039B0008A859B85AC85BD85281739074A075B0733
:1039C00059F00894411C511C611C711C0894C11CC5
:1039D000D11CE11CF11CB0CFC101A601B7010FEF52
:1039E0001FEF2FEF3FE00E94331B882399F43FC065
:1039F0002601370108944108510861087108C10186
:103A0000B301A201970186010E94331B882379F13B
:103A1000730162018C149D04AE04BF0448F3AE85AB
:103A2000BF854D915D916D917C9141155105610569
:103A3000710539F0C101950184010E94331B88236F
:103A4000B1F0EE85FF8580829182A282B382F985F2
:103A5000FF2359F00894811C911CA11CB11CD101B9
:103A60008D929D92AD92BC92139781E001C080E04F
:103A70002F960FB6F894DEBF0FBECDBFCF91DF916A
:103A80001F910F91FF90EF90DF90CF90BF90AF907C
:103A90009F908F907F906F905F904F903F902F906E
:103AA00008951F920F920FB60F9211242F933F93F8
:103AB0004F935F936F937F938F939F93AF93BF9336
:103AC000EF93FF938091ED0787FF05C0109285006B
:103AD000109284002BC02091ED07332727FD3095ED
:103AE0008091C80790E02817390704F58091ED0709
:103AF000992787FD9095FC01EE0FFF1FE80FF91F36
:103B0000E753F84F808186FF11C08091ED07992718
:103B100087FD9095FC01EE0FFF1FE80FF91FE7539B
:103B2000F84F80818F7360E00E94375F8091ED07CE
:103B30008F5F8093ED072091ED07332727FD3095A8
:103B40008091C80790E0281739070CF04EC080918B
:103B5000ED078C300CF049C0209184003091850035
:103B60008091ED07992787FD9095FC01EE0FFF1FCF
:103B7000E80FF91FE753F84F81819281280F391F11
:103B800030938900209388008091ED07992787FD65
:103B90009095FC01EE0FFF1FE80FF91FE753F84F58
:103BA000808186FF2BC08091ED07992787FD909536
:103BB000FC01EE0FFF1FE80FF91FE753F84F80815C
:103BC0008F7361E00E94375F19C080E49CE905C0F3
:103BD0008091840090918500049690938900809351
:103BE00088008FEF8093ED0709C080918400909149
:103BF0008500049680549C4940F3EACFFF91EF91F1
:103C0000BF91AF919F918F917F916F915F914F91F4
:103C10003F912F910F900FBE0F901F9018950F930B
:103C20001F93CF93DF93FC01738D76957170A685FA
:103C3000B7859585772329F08C91892309F454C0A1
:103C400004C08C91892309F04FC08389948920E0B6
:103C500001972FEF8F3F9207D9F7C589D689A6859F
:103C6000B785158560E031E040E050E000E0CE012E
:103C7000202F01972FEF8F3F9207D9F78C91812347
:103C800011F0632B03C0832F80956823330F4F5FA0
:103C90005F4F4830510559F78789908D20E0019793
:103CA0002FEF8F3F9207D9F77111609580913008FF
:103CB0002091310890E001968F73907030E0821768
:103CC000930779F0E0913008F0E0E051F84F60831D
:103CD0008091300890E001968F7390708093300847
:103CE00003C0838D8160838FDF91CF911F910F91EE
:103CF00008951F920F920FB60F9211242F933F93A6
:103D00004F935F936F937F938F939F93AF93BF93E3
:103D1000EF93FF938091EE079091EF07009711F0DA
:103D20000E940F1EFF91EF91BF91AF919F918F91D4
:103D30007F916F915F914F913F912F910F900FBEA7
:103D40000F901F9018951F920F920FB60F9211248B
:103D50002F933F934F935F936F937F938F939F9393
:103D6000AF93BF93EF93FF938091EE079091EF078E
:103D7000009711F00E940F1EFF91EF91BF91AF913C
:103D80009F918F917F916F915F914F913F912F9173
:103D90000F900FBE0F901F9018951F920F920FB6A5
:103DA0000F9211242F933F934F935F936F937F93C1
:103DB0008F939F93AF93BF93EF93FF938091EE0701
:103DC0009091EF07009711F00E940F1EFF91EF9165
:103DD000BF91AF919F918F917F916F915F914F9123
:103DE0003F912F910F900FBE0F901F9018958DE06F
:103DF00061E00E94F85E8BE061E00E94F85E8AE07C
:103E000061E00E94F85E8DE060E00E94375F8BE029
:103E100060E00E94375F8AE061E00E94375F8CB506
:103E200080618CBD8CB580648CBD08952091530851
:103E300030E080915208281B3109C9010895409152
:103E4000520880915308481718F02FEF3FEF0AC02F
:103E5000E42FF0E0EE5CF74F8081282F30E04F5FD9
:103E600040935208C9010895E09152088091530887
:103E7000E81718F0EFEFFFEF06C0F0E0EE5CF74F49
:103E80008081E82FF0E0CF010895089510927A081C
:103E90001092790888EE93E0A0E0B0E080937B0870
:103EA00090937C08A0937D08B0937E088CE591E008
:103EB00090937808809377080895CF92DF92EF92DD
:103EC000FF920F931F93CF93DF937C016B018A01C5
:103ED000809176088823A1F0C0E0D0E00DC0D70122
:103EE000ED91FC91D601AC0FBD1F0190F081E02D4A
:103EF000C7016C9109952196C017D10780F304C0C2
:103F0000CB01642F0E94BE1FC801DF91CF911F918A
:103F10000F91FF90EF90DF90CF900895DF93CF93B4
:103F20000F92CDB7DEB7FC016983809176088823B4
:103F3000C9F080917508803238F081E090E0938379
:103F4000828320E030E015C080917408E82FF0E013
:103F5000EC5AF74F998190838F5F80937408809318
:103F6000750805C0CE01019661E00E94BE1F21E0E8
:103F700030E0C9010F90CF91DF910895482F613251
:103F800010F081E0089580918308843011F082E080
:103F900008956093CE08ADEAB8E0842F9C01F90142
:103FA00002C081918D938E2F841B8617D0F380E001
:103FB00008951F920F920FB60F9211242F933F93E3
:103FC0004F935F936F937F938F939F93AF93BF9321
:103FD000EF93FF938091B90090E0887F90708036D6
:103FE000910509F4F2C081369105CCF5883291052E
:103FF00009F47BC089329105B4F48031910509F44C
:104000006FC0813191053CF4009709F447C10897CE
:1040100009F04FC165C08831910509F466C08097E9
:1040200009F047C182C08034910509F4A4C08134ED
:10403000910544F48033910509F482C0C89709F0D2
:1040400038C189C08035910509F489C0883591054A
:1040500009F496C08834910509F02BC1AEC08839A7
:10406000910509F413C189399105ECF4883791055C
:1040700009F4ABC0893791054CF48836910509F4F1
:10408000A4C08037910509F014C19FC088389105FC
:1040900009F4FCC08039910509F49DC08038910570
:1040A00009F007C198C0803B910509F4C6C0813B67
:1040B00091054CF4803A910509F49FC0883A910526
:1040C00009F0F7C0BAC0803C910509F4E3C0883C10
:1040D000910509F4DFC0883B910509F0EAC0C2C030
:1040E000809184088093BB00CFC09091AB088091F1
:1040F000AC08981768F49091AB08E92FF0E0E55709
:10410000F74F80818093BB009F5F9093AB08BCC04A
:1041100080918508882309F44BC085ED8093BC000D
:104120008091BC0084FDFCCFC2C080E28093F00887
:1041300085ED8093BC008091BC0084FDFCCFB7C0AE
:1041400080E38093F00885ED8093BC008091BC00F3
:1041500084FDFCCFACC088E38093F0089BC08091C5
:10416000AB089091BB00E82FF0E0E557F74F908344
:104170008F5F8093AB089091AB088091AC0882C0B0
:104180008091AB089091BB00E82FF0E0E557F74F26
:1041900090838F5F8093AB0880918508882341F0DE
:1041A00085ED8093BC008091BC0084FDFCCF7FC076
:1041B00081E08093860884EA6EC085ED8093BC0020
:1041C0008091BC0084FDFCCF72C083E080938308A3
:1041D0001092EF0859C08091EF08803208F056C065
:1041E0008091EF089091BB00E82FF0E0E153F74F8A
:1041F00090838F5F8093EF0847C08091EF088032F3
:1042000030F4E091EF08F0E0E153F74F108285EDD4
:104210008093BC008091BC0084FDFCCF1092830889
:104220006091EF08E0918908F0918A088FEC98E09E
:1042300070E009951092EF082DC084E08093830808
:104240001092CD081092CE08E0918708F09188086E
:1042500009958091CE08882329F481E08093CE08C7
:104260001092AD089091CD08E92FF0E0E355F74F9B
:1042700080818093BB009F5F9093CD089091CD0883
:104280008091CE08981710F485EC01C085E88093E2
:10429000BC000FC085EC8093BC0009C01092F008F0
:1042A00085ED8093BC008091BC0084FDFCCF109212
:1042B0008308FF91EF91BF91AF919F918F917F9173
:1042C0006F915F914F913F912F910F900FBE0F9083
:1042D0001F901895089580E00895089580E008954E
:1042E0009C01205F3F4FC901089581E00895FC01C2
:1042F0008781882319F0862F611181E08087678389
:104300000895FC01A485B585109711F480E0089507
:10431000ED91FC911197068CF78DE02DCD0109955B
:104320000895FC01248135814281538120FF0EC014
:10433000F901F595E795E60FF71F0190F081E02D63
:10434000E40FF51F0190F081E02D01C0FA013595D1
:104350002795CB01820F931F09950895FF920F9324
:104360001F93CF93DF93FC01EB01F42EA081B18169
:104370002D913C91F90109958C018AE0F81621F400
:10438000CE010E94955B04C0CE016F2D0E94825B1E
:104390009C01200F311FC901DF91CF911F910F9117
:1043A000FF900895EF92FF920F931F937C0104EF0B
:1043B00014E0C80160E070E048E70E946E05C801A3
:1043C00061E070E040E50E946E05C80162E070E0C7
:1043D0004CE40E946E0583E090E090930C0B809378
:1043E0000B0BC701409667E07BE040E00E94AE21E6
:1043F00081E01F910F91FF90EF900895FC018EE8EE
:1044000091E091838083828187FF06C083819481BC
:104410000E941E030E94A12B08950F931F938C01ED
:1044200084E094E0F80191838083C8010C960E9497
:10443000FE21C80107960E94FE21C80102960E9433
:10444000FE211F910F910895CF93DF93EC018EE829
:1044500091E0998388838A8187FF06C08B819C8144
:104460000E941E030E94A12BCE010E94525BDF918D
:10447000CF910895EF92FF920F931F93CF93DF9305
:104480008C017B01FC01438154814115510531F4BC
:104490008281843019F020E030E002C02AE631E267
:1044A000232B81F4452B11F4F801828180E090E008
:1044B000A0E0B0E0A0FD06C0C7016AE20E94825BF6
:1044C000EC010EC0C0E0D0E0C801BE010E9445571B
:1044D000682F882329F0C7010E94825B2196F4CFC0
:1044E000CE01DF91CF911F910F91FF90EF90089532
:1044F000CF92DF92EF92FF921F93CF93DF936C01E5
:104500007B01C0E0D0E0C601BE010E944557182FD4
:1045100081548A3108F4105EC701BE010E944557DC
:10452000982F81548A3108F4905E911731F49923C1
:1045300011F481E003C02196E6CF80E0DF91CF91B6
:104540001F91FF90EF90DF90CF900895CF92DF9270
:10455000FF920F931F93DF93CF9300D000D00F9261
:10456000CDB7DEB76B01DB01ED91FC910280F381E9
:10457000E02D8E010F5F1F4FC8010995C80169EA40
:104580007AE00E947822F82EC8010E94FE21FF20C6
:1045900011F480E008C0D601ED91FC910288F38906
:1045A000E02DC60109950F900F900F900F900F907E
:1045B000CF91DF911F910F91FF90DF90CF900895E1
:1045C000CF93DF93EC0183E99AE060E070E00E9412
:1045D00045578A32D1F0BE01605F7F4F83E99AE090
:1045E0000E9478228823A1F0BE016B5E7F4F88E98C
:1045F0009AE00E947822882359F06A968DE99AE021
:10460000BE010E947822882319F081E080936B0A12
:1046100081E0DF91CF910895FC018EE891E09183D4
:10462000808362835483438308950F931F938C0187
:1046300062E040E750E00E940C23C8011F910F91F7
:104640000895AF92BF92CF92DF92FF920F931F9384
:10465000DF93CF9300D000D00F92CDB7DEB76C01BF
:104660005B018E010F5F1F4FC80162E048E850E018
:104670000E940C23C5010796B8010E947822F82EEB
:10468000C8010E94FE21FF2011F481E027C0D5015E
:104690001C960D911C911D97C6014096B8010E9471
:1046A0007822882359F4D601ED91FC91048CF58D84
:1046B000E02DC601B8010995882361F090E0F6016C
:1046C0008781811191E0D60118969C93189781E01B
:1046D00017968C9381E0F601818780E00F900F9010
:1046E0000F900F900F90CF91DF911F910F91FF903E
:1046F000DF90CF90BF90AF900895CF92DF92FF925E
:104700000F931F93DF93CF9300D000D00F92CDB7BC
:10471000DEB78C01CE01019662E048E650E00E94CF
:104720000C23FB80CC80DD80F801828987FF04C0E8
:10473000C80140960E94E756FFE7FF22F801F28A7F
:10474000D48AC38ACE0101960E94FE2181E00F9097
:104750000F900F900F900F90CF91DF911F910F91BD
:10476000FF90DF90CF900895FC018EE891E0918357
:10477000808312821482138208958F929F92AF9247
:10478000BF92CF92DF92EF92FF920F931F93DF932E
:10479000CF9300D000D00F92CDB7DEB74C0140913F
:1047A0000B0B50910C0B8E010F5F1F4FC80163E084
:1047B0000E940C23C8010E94C057E0900B0BF090A0
:1047C0000C0BCC24DD24B02EA12E8B2D9A2DB601FE
:1047D0000E944557882321F00894C11CD11CF5CFB5
:1047E0000894E11CF11CEC0CFD1CF0920C0BE09207
:1047F0000B0B8401005F1F4F8B2D9A2DB8010E9477
:104800002A578B2D9A2D0E94FE21C80167EF7BE06D
:104810004AE00E94AE2181E00F900F900F900F9020
:104820000F90CF91DF911F910F91FF90EF90DF904C
:10483000CF90BF90AF909F908F9008950F931F934C
:104840008C018CE691E0F80191838083C8014F963A
:104850000E94FE21C8010E960E940D22C8010E94EE
:104860002B4DC8010E94525B1F910F9108950F9329
:104870001F938C018CE691E0F80191838083C8013D
:104880004F960E94FE21C8010E960E940D22C8017B
:104890000E942B4D1F910F910895EF92FF921F934D
:1048A000DF93CF93CDB7DEB72A970FB6F894DEBF6C
:1048B0000FBECDBF8130910509F06EC06F5F7F4F95
:1048C00009F073C01092F6081092F5081092F408DF
:1048D0001092F3081092F7088CE691E09093F2089A
:1048E0008093F10884E094E0909300098093FF089E
:1048F00081E099E00E94B42386E099E00E94B4230D
:104900008BE099E00E94B42380E199E00E94B423F7
:1049100081E08093F8088093F9081092FC081092C7
:10492000FB08CE01019662E044E750E00E940C23B0
:104930001B81EC80FD8080910D0987FF04C08BE016
:1049400099E00E94E7561F7710930D09F0920F0926
:10495000E0920E09CE0101960E94FE21CE0106963C
:1049600062E04DE750E00E940C231885E984FA8448
:104970008091080987FF04C086E099E00E94E7560D
:104980001F7710930809F0920A09E0920909CE01F5
:1049900006960E94FE2109C0892B39F46F5F7F4F74
:1049A00021F481EF98E00E9437242A960FB6F894FC
:1049B000DEBF0FBECDBFCF91DF911F91FF90EF9073
:1049C000089580E090E06FEF7FEF0E944D240895FE
:1049D00081E090E06FEF7FEF0E944D2408950F93E8
:1049E0001F93CF93DF93EC018B01E881F981048061
:1049F000F581E02D0995892B19F420E030E00CC0F9
:104A0000E881F9810480F581E02DCE010995BC0192
:104A1000C8010E948A5B9C01C901DF91CF911F915F
:104A20000F910895DF93CF9300D000D000D0CDB781
:104A3000DEB728E931E03A83298320E130E041E024
:104A400050E02B833C834D835E83BE016F5F7F4FBD
:104A500040E020E00E94024C26960FB6F894DEBF9C
:104A60000FBECDBFCF91DF910895DF92EF92FF92FD
:104A70000F931F93DF93CF93CDB7DEB72D970FB66C
:104A8000F894DEBF0FBECDBFE82ED92E8FE59AE099
:104A90000E941E49882309F444C08E010D5F1F4FF8
:104AA000C80162E043E850E00E940C2380E79AE0EE
:104AB000B8010E947822F82EC8010E94FE21FF2032
:104AC00081F188E991E09987888784E190E0A1E00D
:104AD000B0E08A879B87AC87BD878E2D9D2DBE0158
:104AE000685F7F4F40E020E00E94024C80916B0A9B
:104AF0008823B9F080916C0A882399F087EF9BE0B6
:104B00006FE57AE00E948A5B80EA91E09A8389836C
:104B10008E2D9D2DBE016F5F7F4F41E020E00E94F2
:104B2000024C8FE59AE00E94F64C81E02D960FB67C
:104B3000F894DEBF0FBECDBFCF91DF911F910F91D3
:104B4000FF90EF90DF900895EF92FF920F931F93E5
:104B5000DF93CF9300D000D00F92CDB7DEB78C019A
:104B60007E010894E11CF11CC70162E048E850E0B6
:104B70000E940C2385E090E00E94555BFC018EE8CA
:104B800091E0918380831282D80153962D913C91BC
:104B9000549752968C918F77828334832383C801F4
:104BA000B701AF0121E00E94DD4DC7010E94FE2147
:104BB00081E00F900F900F900F900F90CF91DF91A9
:104BC0001F910F91FF90EF900895CF92DF92EF9297
:104BD000FF920F931F93DF93CF9300D000D00F92DB
:104BE000CDB7DEB76C018E010F5F1F4FC80162E0C9
:104BF00040E950E00E940C2385E090E00E94555B64
:104C0000F82EE92E62E048E850E00E940C23C6012D
:104C1000B8014F2D5E2D21E00E94DD4DC8010E949C
:104C2000FE2181E00F900F900F900F900F90CF9189
:104C3000DF911F910F91FF90EF90DF90CF9008953B
:104C4000EF92FF920F931F93CF93DF938B01EC01B1
:104C500060962FE1E22EF12CE80EF91ECE01B7018D
:104C60000E942A57CE01B8010E947357882311F081
:104C700081E005C0C701BE010E942A5780E0DF9194
:104C8000CF911F910F91FF90EF90089581EF98E0E1
:104C90000E9435250895DC016D3019F420E030E0E4
:104CA0000BC01696ED91FC91179761931796FC93A4
:104CB000EE93169721E030E0C901089580E090E07E
:104CC000089580E0089580E0089580E0089580E0F0
:104CD000089580E0089580E0089580E0089580E0E0
:104CE000089508950F931F938C0188EA91E0F801CD
:104CF00091838083C8010E942B4DC8010E94525BA2
:104D00001F910F910895FC0188EA91E091838083BF
:104D1000CF010E942B4D08950F931F938C0188EAB9
:104D200091E0F80191838083C8010E942B4DC80156
:104D30000E94525B1F910F910895FC0188EA91E057
:104D400091838083CF010E942B4D0895FF920F9392
:104D50001F93CF93DF938B01EC01FF246A8162954F
:104D60006F706A3010F0695C01C0605DC8010E941C
:104D7000825B6A816F706A3010F0695C01C0605DAF
:104D8000C8010E94825B85E0F81621F0C8016AE341
:104D90000E94825BF394219686E0F816F9F6DF9183
:104DA000CF911F910F91FF900895CF92DF92EF92D4
:104DB000FF920F931F93CF93DF936C017B0100E071
:104DC00010E0C0E0D0E0C701BE010E944557982F17
:104DD00081548A3108F4905E892F80538A3020F400
:104DE0001295107F105307C0892F8156863028F402
:104DF0001295107F1755190F06C0F601E00FF11D2F
:104E000012830F5F10E0992321F0063010F42196F1
:104E1000DACFDF91CF911F910F91FF90EF90DF904C
:104E2000CF900895BF92CF92DF92EF92FF920F93AF
:104E30001F93CF93DF936C017B0100E0C0E0D0E0D3
:104E400010E08AE0B82EC701BE010E944557982F96
:104E500090539A3028F41B9D102D1124190F07C070
:104E6000E02FF0E00F5FEC0DFD1D148310E08823B0
:104E700021F0043010F42196E6CFDF91CF911F91FD
:104E80000F91FF90EF90DF90CF90BF900895FF9229
:104E90000F931F93CF93DF938C01EB010E94782235
:104EA000882391F0FA800B80DC81C02DF80182818B
:104EB00087FF03C0C8010E94E756FFE7FF22F80101
:104EC000F282D483C38381E0DF91CF911F910F9150
:104ED000FF9008958F929F92AF92BF92CF92DF92F0
:104EE000FF920F931F93DF93CF93CDB7DEB7A897B1
:104EF0000FB6F894DEBF0FBECDBF4C015B018E0133
:104F00000F5F1F4FC80162E04BE950E00E940C2385
:104F100097E0C92ED12CCA0CDB1CC601B8010E9437
:104F20007822F82EC8010E94FE21FF2049F0F501E9
:104F300064857585C40109960E94D52681E09DC0CF
:104F40008E010A5F1F4FC80162E047EA50E00E94ED
:104F50000C23C601B8010E947822F82EC8010E94D5
:104F6000FE21FF2031F0F50164857585C40141966D
:104F700018C08E01055F1F4FC80162E047EA50E08C
:104F80000E940C23C601B8010E947822F82EC801A5
:104F90000E94FE21FF2041F0F50164857585C40162
:104FA00049960E94122768C08E01005F1F4FC801FA
:104FB00062E042EB50E00E940C23C601B8010E945F
:104FC0007822F82EC8010E94FE21FF2009F454C067
:104FD000F501C484D5848E010B5E1F4FC80162E0C9
:104FE00047EB50E00E940C23C801B6010E944727FE
:104FF000F82EC8010E94FE21FF20D9F58E01065E21
:105000001F4FC80162E04CEB50E00E940C23C80126
:10501000B6010E944727F82EC8010E94FE21FF20FA
:1050200041F58E01015E1F4FC80162E04EEB50E07A
:105030000E940C23C801B6010E944727F82EC80120
:105040000E94FE21FF20A9F48E010C5D1F4FC801B4
:1050500062E041EC50E00E940C23C801B6010E94BE
:105060004727F82EC8010E94FE21FF2011F480E09E
:1050700001C081E0F40181A380E0A8960FB6F89406
:10508000DEBF0FBECDBFCF91DF911F910F91FF907B
:10509000DF90CF90BF90AF909F908F9008950F9327
:1050A00089E59AE060E040E020E000E00E94BE5A1E
:1050B0000F910895CF92DF92EF92FF920F931F937B
:1050C000DF93CF93CDB7DEB762970FB6F894DEBF0C
:1050D0000FBECDBF7C018B0125E1C22E29E0D22E6F
:1050E0001E861D868AEC91E09C878B87D88ACF86A6
:1050F000DA8AC98ACE010B960E948A5BD801ED91AB
:10510000FC910190F081E02DC80167EF7BE00995EB
:105110008FEF89838A838B838C838AE290E0E80E09
:10512000F91E8E010B5F1F4FC801BE016F5F7F4FDD
:105130000E94285BC701B80149E15FE00E94FF10AF
:1051400049895A898F859889481B590BC701B6012F
:105150000E94DF10C7010E94FA1081E062960FB62C
:10516000F894DEBF0FBECDBFCF91DF911F910F919D
:10517000FF90EF90DF90CF9008950F931F93CF9300
:10518000DF93EC018C01065D1F4FC8010E948B105C
:10519000892B91F0EAA5FBA5008CF18DE02DC801CB
:1051A00065E179E044E451E00995892B29F0CE01CD
:1051B00065E179E00E94462680E0DF91CF911F9162
:1051C0000F910895CF92DF92EF92FF920F931F936A
:1051D000DF93CF93CDB7DEB769970FB6F894DEBFF4
:1051E0000FBECDBF6C018E010F5F1F4FC80162E083
:1051F0004BE950E00E940C23A601475F5F4FC601B8
:10520000B80120E00E94DD4DC8010E94FE218E0100
:105210000A5F1F4FC80162E047EA50E00E940C237A
:10522000A6014F5E5F4FC601B80120E00E94DD4D30
:10523000C8010E94FE218E01055F1F4FC80162E078
:1052400045EC50E00E940C23A601475E5F4FC6016B
:10525000B80120E00E94DD4DC8010E94FE21F60148
:1052600081A1882399F08E01005F1F4FC80162E081
:1052700042EB50E00E940C2385E090E00E94555BD9
:10528000F82EE92E62E04EEB50E012C08E010B5E6C
:105290001F4FC80162E042EB50E00E940C2385E002
:1052A00090E00E94555BF82EE92E62E04DEC50E054
:1052B0000E940C23C601B8014F2D5E2D21E00E94F3
:1052C000DD4DC8010E94FE2181E069960FB6F89479
:1052D000DEBF0FBECDBFCF91DF911F910F91FF9029
:1052E000EF90DF90CF900895AF92BF92CF92DF9270
:1052F000EF92FF920F931F93DF93CF93CDB7DEB75B
:1053000064970FB6F894DEBF0FBECDBFB82EA92E9E
:1053100031EDC32E30E0D32E8E010F5F1F4FC80139
:1053200062E0A6010E940C2385E090E00E94555B9C
:10533000F82EE92E62E04BE950E00E940C238B2D01
:105340009A2DB8014F2D5E2D21E00E94DD4DC80140
:105350000E94FE218E010A5F1F4FC80162E0A60174
:105360000E940C2385E090E00E94555BF82EE92E08
:1053700062E047EA50E00E940C238B2D9A2DB80181
:105380004F2D5E2D21E00E94DD4DC8010E94FE21BF
:105390008E01055F1F4FC80162E0A6010E940C2329
:1053A00085E090E00E94555BF82EE92E62E045EC26
:1053B00050E00E940C238B2D9A2DB8014F2D5E2DAD
:1053C00021E00E94DD4DC8010E94FE218E01005F98
:1053D0001F4FC80162E0A6010E940C2385E090E007
:1053E0000E94555BF82EE92E62E042EB50E00E94ED
:1053F0000C238B2D9A2DB8014F2D5E2D21E00E949C
:10540000DD4DC8010E94FE2181E064960FB6F8943C
:10541000DEBF0FBECDBFCF91DF911F910F91FF90E7
:10542000EF90DF90CF90BF90AF900895FF920F93D1
:105430001F93CF93DF93EC018C01FF2487E09BE067
:10544000F80163850E949D2CF3940F5F1F4FF6E0D7
:10545000FF16A1F787E09BE06D890E949D2C87E0F5
:105460009BE06E890E949D2C87E09BE06F890E94E3
:105470009D2C87E09BE0688D0E949D2C87E09BE03F
:105480006D8D0E949D2C87E09BE06E8D0E949D2C6F
:1054900087E09BE06F8D0E949D2C87E09BE068A1D8
:1054A0000E949D2C87E09BE069A10E949D2C81E0D9
:1054B000DF91CF911F910F91FF900895CF92DF92CE
:1054C000EF92FF920F931F93DF93CF93CDB7DEB789
:1054D000A4970FB6F894DEBF0FBECDBF6C01FC01E0
:1054E00081A18823E1F1B601655F7F4F89E095E0F6
:1054F0000E94170F892B99F1CE01019669E075E0A2
:105500000E94A90E8B819C81AD81BE81F601858BA5
:10551000968BA78BB08FCE01079669E075E00E944D
:105520008C0E89859A85AB85BC85F601858F968F13
:10553000A78FB0A3C6018A9669E17FE00E94A311FC
:10554000A4960FB6F894DEBF0FBECDBFCF91DF910A
:105550001F910F91FF90EF90DF90CF90089522EF71
:1055600034E03E872D87F60185899689A789B08D1D
:105570008F87988BA98BBA8B3C8B2B8B80915B0A86
:1055800090915C0AA0915D0AB0915E0A8D8B9E8B12
:10559000AF8BB88F3A8F298F8B8F9C8FAD8FBE8F3B
:1055A00038A32F8F858D968DA78DB0A189A39AA33F
:1055B000ABA3BCA3B601655F7F4F89E095E0AE0168
:1055C000435F5F4F9E012D5E3F4F8E01075E1F4F71
:1055D000EFE1EE2EF12CEC0EFD1E0E94C60EAACFBE
:1055E000FF920F931F93CF93DF938C01EC01FF2465
:1055F00060E071E080E090E00E94CE5D6B87F39404
:10560000219686E0F816A1F7F80183858C7F8260E9
:10561000838781E081A3C8010E945E2A80E0DF9138
:10562000CF911F910F91FF900895FF920F931F93B9
:10563000CF93DF93EC018C01FF2487E09BE00E9475
:105640005E2CF8018387F3940F5F1F4FF6E0FF167F
:10565000A1F787E09BE00E945E2C8D8B87E09BE0AA
:105660000E945E2C8E8B87E09BE00E945E2C8F8BCD
:1056700087E09BE00E945E2C888F87E09BE00E9481
:105680005E2C8D8F87E09BE00E945E2C8E8F87E0E2
:105690009BE00E945E2C8F8F87E09BE00E945E2C37
:1056A00088A387E09BE00E945E2C19A2882311F05A
:1056B00081E089A3CE010E945E2A80E0DF91CF9134
:1056C0001F910F91FF900895EF92FF920F931F93F8
:1056D0008C01FC011582148213821282168282EDE3
:1056E00091E09183808386EF91E092878187ACEF90
:1056F000EA2EA1E0FA2EF28AE18AC80143960E94BE
:10570000395BF801F28EE18EC8014B960E94395B3D
:10571000F80115A214A28AEC91E093A382A3C80118
:105720008A960E9408118FEF9FEFF8019087878378
:105730001F910F91FF90EF90089502960E94D95A01
:105740000895E091270CF091280C4091250C509180
:10575000260CA0E0B0E01DC08081918102968E0FE2
:105760009F1F4817590781F4F093260CE093250CEE
:10577000109729F013961C921E921297089510927A
:10578000280C1092270C0895DF01828193819C01DF
:10579000F901309709F708958F929F92AF92BF92C7
:1057A000DF92EF92FF920F931F93DF93CF93CDB7CA
:1057B000DEB72C970FB6F894DEBF0FBECDBFBC018D
:1057C0002091250C3091260CCE0101962115310532
:1057D00019F48B529C4002C0821B930B9A838983DD
:1057E00089809A80A0902A01B0902B01A818B9084E
:1057F00009F44DC087EF9BE00E942D5D9EE8E92EE5
:1058000091E0F92EFC82EB8282E0D82EDD8288EDD9
:1058100090E09F838E838E010D5F1F4FC80167EF5D
:105820007BE04AE30E94AE21C8010E94FE21609104
:105830002A0170912B0187EF9BE04AE050E00E9423
:10584000FB5C87EF9BE06DE20E94825B87EF9BE051
:10585000B4014AE050E00E94FB5CF986E886DA86F3
:105860008CED90E09C878B878E01085F1F4FC801ED
:1058700067EF7BE04AE30E94AE21C8010E94FE214F
:1058800087EF9BE0B5014AE050E00E940E5D9092E8
:105890002B0180922A01C5012C960FB6F894DEBF29
:1058A0000FBECDBFCF91DF911F910F91FF90EF9071
:1058B000DF90BF90AF909F908F900895FC0164811E
:1058C00075816F5F7F4F758364836150704084EF93
:1058D00094E00E94670508951F93CF93DF93C0E083
:1058E000D0E084EF94E0BE010E946705182F87EF97
:1058F0009BE0612F4AE050E00E948B5C87EF9BE0C9
:1059000067E071E00E942D5D113258F084EF94E061
:10591000BE010E946705682F87EF9BE00E94B55B80
:1059200004C087EF9BE00E94955B2196C431D105AE
:10593000C1F6DF91CF911F910895FC01462F64813C
:1059400075816F5F7F4F758364836150704084EF12
:1059500094E00E946E0581E090E00895DF92EF925E
:10596000FF920F931F938C01D72EDC01ED91FC91D8
:105970000190F081E02D09957C01D801ED91FC9119
:105980000190F081E02DC8016D2D09959C012E0D2F
:105990003F1DC9011F910F91FF90EF90DF90089577
:1059A00080E0089582E0089508950F931F938C017D
:1059B000CB01BA0120E03EEF4FEF56E40E94926126
:1059C00020E030E048EC52E40E9447600E94AF6063
:1059D000F801738362831F910F910895FC01628126
:1059E0007381882777FD8095982F0E94E26020E0E0
:1059F00030E048EC52E40E94926120E03EEF4FEF2D
:105A000056E40E94476008952FEF3FEFFC01338377
:105A1000228308950F931F938C01CB01BA010E943A
:105A2000B460F80162837383848395831F910F911F
:105A30000895FC0162817381848195810E94E060F8
:105A4000089521E230E040E050E0FC0122833383FE
:105A500044835583089580E008959C01295F3F4F5A
:105A6000C901089581E0089580E0089583E60895CE
:105A70000F931F93182F092F0E94714B892B19F434
:105A800020E030E00EC0812F902F0E94714BFC016E
:105A9000A081B18192962D913C919397F90109953E
:105AA0009C01C9011F910F9108950F931F93182F07
:105AB000092F0E94714B892B19F420E030E00EC0B1
:105AC000812F902F0E94714BFC01A081B181909693
:105AD0002D913C919197F90109959C01C9011F9164
